:06086D00C2977FE87E0344
:10087300E4FDFCC3ED9FEC9E5015E4FBFA0BBB00BB
:10088300010ABA04F8BBFBF50DBD00010C80E4229C
:10080000C282C284C286D290D292D294D296D29719
:10081000D28012086FC28012086FC282D286D28044
:10082000C2947FB87E0B120873D294C28012086DF6
:10083000D280D297C286C2927FB87E0B1208731202
:10084000086DD284D297C2927FB87E0B120873D201
:1008500092C297C29612086FD297D296C284C29063
:0D0860007FB87E0B120873C296D29080A85C
:0300000002089360
:0C089300787FE4F6D8FD758107020800AC
:00000001FF
